{
  "contractName": "Bank",
  "abi": [
    {
      "inputs": [],
      "stateMutability": "nonpayable",
      "type": "constructor"
    },
    {
      "anonymous": false,
      "inputs": [
        {
          "indexed": false,
          "internalType": "address",
          "name": "receiverAddress",
          "type": "address"
        },
        {
          "indexed": true,
          "internalType": "string",
          "name": "userId",
          "type": "string"
        }
      ],
      "name": "ReceiverCreated",
      "type": "event"
    },
    {
      "inputs": [],
      "name": "owner",
      "outputs": [
        {
          "internalType": "address",
          "name": "",
          "type": "address"
        }
      ],
      "stateMutability": "view",
      "type": "function"
    },
    {
      "inputs": [
        {
          "internalType": "string",
          "name": "userId",
          "type": "string"
        }
      ],
      "name": "createReceiver",
      "outputs": [],
      "stateMutability": "nonpayable",
      "type": "function"
    },
    {
      "inputs": [
        {
          "internalType": "address",
          "name": "tokenAddress",
          "type": "address"
        },
        {
          "internalType": "address",
          "name": "receiverAddress",
          "type": "address"
        },
        {
          "internalType": "address",
          "name": "toAddress",
          "type": "address"
        }
      ],
      "name": "withdrawReceiverTo",
      "outputs": [],
      "stateMutability": "nonpayable",
      "type": "function"
    },
    {
      "inputs": [
        {
          "internalType": "address",
          "name": "tokenAddress",
          "type": "address"
        }
      ],
      "name": "getTotalBalance",
      "outputs": [
        {
          "internalType": "uint256",
          "name": "",
          "type": "uint256"
        }
      ],
      "stateMutability": "view",
      "type": "function"
    },
    {
      "inputs": [
        {
          "internalType": "address",
          "name": "tokenAddress",
          "type": "address"
        },
        {
          "internalType": "address",
          "name": "receiverAddress",
          "type": "address"
        }
      ],
      "name": "getBalanceOfReceiver",
      "outputs": [
        {
          "internalType": "uint256",
          "name": "",
          "type": "uint256"
        }
      ],
      "stateMutability": "nonpayable",
      "type": "function"
    }
  ],
  "bytecode": "0x608060405234801561001057600080fd5b50336000806101000a81548173ffffffffffffffffffffffffffffffffffffffff021916908373ffffffffffffffffffffffffffffffffffffffff160217905550611557806100606000396000f3fe608060405234801561001057600080fd5b50600436106100575760003560e01c80630dec4dea1461005c57806345819203146100785780638da5cb5b146100a85780639b3ebf46146100c6578063d3d38193146100e2575b600080fd5b61007660048036038101906100719190610955565b610112565b005b610092600480360381019061008d91906108a1565b6102ef565b60405161009f9190610ac9565b60405180910390f35b6100b0610417565b6040516100bd9190610a65565b60405180910390f35b6100e060048036038101906100db91906108dd565b61043b565b005b6100fc60048036038101906100f79190610878565b610562565b6040516101099190610ac9565b60405180910390f35b60008054906101000a900473ffffffffffffffffffffffffffffffffffffffff1673ffffffffffffffffffffffffffffffffffffffff163373ffffffffffffffffffffffffffffffffffffffff16146101a0576040517f08c379a000000000000000000000000000000000000000000000000000000000815260040161019790610aa9565b60405180910390fd5b60006040516101ae90610721565b604051809103906000f0801580156101ca573d6000803e3d6000fd5b509050604051806020016040528083815250600160008373ffffffffffffffffffffffffffffffffffffffff1673ffffffffffffffffffffffffffffffffffffffff168152602001908152602001600020600082015181600001908051906020019061023792919061072e565b509050506002819080600181540180825580915050600190039060005260206000200160009091909190916101000a81548173ffffffffffffffffffffffffffffffffffffffff021916908373ffffffffffffffffffffffffffffffffffffffff160217905550816040516102ac9190610a4e565b60405180910390207feaa64bb02628de468ace7c47b9bc7367c7db8ce00f05587440a5f45623179922826040516102e39190610a65565b60405180910390a25050565b60008060009054906101000a900473ffffffffffffffffffffffffffffffffffffffff1673ffffffffffffffffffffffffffffffffffffffff163373ffffffffffffffffffffffffffffffffffffffff1614610380576040517f08c379a000000000000000000000000000000000000000000000000000000000815260040161037790610aa9565b60405180910390fd5b60008290508073ffffffffffffffffffffffffffffffffffffffff1663f8b2cb4f856040518263ffffffff1660e01b81526004016103be9190610a65565b60206040518083038186803b1580156103d657600080fd5b505afa1580156103ea573d6000803e3d6000fd5b505050506040513d601f19601f8201168201806040525081019061040e9190610996565b91505092915050565b60008054906101000a900473ffffffffffffffffffffffffffffffffffffffff1681565b60008054906101000a900473ffffffffffffffffffffffffffffffffffffffff1673ffffffffffffffffffffffffffffffffffffffff163373ffffffffffffffffffffffffffffffffffffffff16146104c9576040517f08c379a00000000000000000000000000000000000000000000000000000000081526004016104c090610aa9565b60405180910390fd5b60008290508073ffffffffffffffffffffffffffffffffffffffff1663e3f6d88485846040518363ffffffff1660e01b8152600401610509929190610a80565b602060405180830381600087803b15801561052357600080fd5b505af1158015610537573d6000803e3d6000fd5b505050506040513d601f19601f8201168201806040525081019061055b919061092c565b5050505050565b60008060009054906101000a900473ffffffffffffffffffffffffffffffffffffffff1673ffffffffffffffffffffffffffffffffffffffff163373ffffffffffffffffffffffffffffffffffffffff16146105f3576040517f08c379a00000000000000000000000000000000000000000000000000000000081526004016105ea90610aa9565b60405180910390fd5b6000805b60028054905081101561071757600060028281548110610640577f4e487b7100000000000000000000000000000000000000000000000000000000600052603260045260246000fd5b9060005260206000200160009054906101000a900473ffffffffffffffffffffffffffffffffffffffff1690508073ffffffffffffffffffffffffffffffffffffffff1663f8b2cb4f866040518263ffffffff1660e01b81526004016106a69190610a65565b60206040518083038186803b1580156106be57600080fd5b505afa1580156106d2573d6000803e3d6000fd5b505050506040513d601f19601f820116820180604052508101906106f69190610996565b836107019190610b6c565b925050808061070f90610c7e565b9150506105f7565b5080915050919050565b61078880610d9a83390190565b82805461073a90610c4c565b90600052602060002090601f01602090048101928261075c57600085556107a3565b82601f1061077557805160ff19168380011785556107a3565b828001600101855582156107a3579182015b828111156107a2578251825591602001919060010190610787565b5b5090506107b091906107b4565b5090565b5b808211156107cd5760008160009055506001016107b5565b5090565b60006107e46107df84610b15565b610ae4565b9050828152602081018484840111156107fc57600080fd5b610807848285610c0a565b509392505050565b60008135905061081e81610d54565b92915050565b60008151905061083381610d6b565b92915050565b600082601f83011261084a57600080fd5b813561085a8482602086016107d1565b91505092915050565b60008151905061087281610d82565b92915050565b60006020828403121561088a57600080fd5b60006108988482850161080f565b91505092915050565b600080604083850312156108b457600080fd5b60006108c28582860161080f565b92505060206108d38582860161080f565b9150509250929050565b6000806000606084860312156108f257600080fd5b60006109008682870161080f565b93505060206109118682870161080f565b92505060406109228682870161080f565b9150509250925092565b60006020828403121561093e57600080fd5b600061094c84828501610824565b91505092915050565b60006020828403121561096757600080fd5b600082013567ffffffffffffffff81111561098157600080fd5b61098d84828501610839565b91505092915050565b6000602082840312156109a857600080fd5b60006109b684828501610863565b91505092915050565b6109c881610bc2565b82525050565b60006109d982610b45565b6109e38185610b61565b93506109f3818560208601610c19565b80840191505092915050565b6000610a0c601883610b50565b91507f696e73756666696369656e74207065726d697373696f6e7300000000000000006000830152602082019050919050565b610a4881610c00565b82525050565b6000610a5a82846109ce565b915081905092915050565b6000602082019050610a7a60008301846109bf565b92915050565b6000604082019050610a9560008301856109bf565b610aa260208301846109bf565b9392505050565b60006020820190508181036000830152610ac2816109ff565b9050919050565b6000602082019050610ade6000830184610a3f565b92915050565b6000604051905081810181811067ffffffffffffffff82111715610b0b57610b0a610d25565b5b8060405250919050565b600067ffffffffffffffff821115610b3057610b2f610d25565b5b601f19601f8301169050602081019050919050565b600081519050919050565b600082825260208201905092915050565b600081905092915050565b6000610b7782610c00565b9150610b8283610c00565b9250827fffffffffffffffffffffffffffffffffffffffffffffffffffffffffffffffff03821115610bb757610bb6610cc7565b5b828201905092915050565b6000610bcd82610be0565b9050919050565b60008115159050919050565b600073ffffffffffffffffffffffffffffffffffffffff82169050919050565b6000819050919050565b82818337600083830152505050565b60005b83811015610c37578082015181840152602081019050610c1c565b83811115610c46576000848401525b50505050565b60006002820490506001821680610c6457607f821691505b60208210811415610c7857610c77610cf6565b5b50919050565b6000610c8982610c00565b91507fffffffffffffffffffffffffffffffffffffffffffffffffffffffffffffffff821415610cbc57610cbb610cc7565b5b600182019050919050565b7f4e487b7100000000000000000000000000000000000000000000000000000000600052601160045260246000fd5b7f4e487b7100000000000000000000000000000000000000000000000000000000600052602260045260246000fd5b7f4e487b7100000000000000000000000000000000000000000000000000000000600052604160045260246000fd5b610d5d81610bc2565b8114610d6857600080fd5b50565b610d7481610bd4565b8114610d7f57600080fd5b50565b610d8b81610c00565b8114610d9657600080fd5b5056fe608060405234801561001057600080fd5b50336000806101000a81548173ffffffffffffffffffffffffffffffffffffffff021916908373ffffffffffffffffffffffffffffffffffffffff160217905550610728806100606000396000f3fe608060405234801561001057600080fd5b50600436106100415760003560e01c80638da5cb5b14610046578063e3f6d88414610064578063f8b2cb4f14610094575b600080fd5b61004e6100c4565b60405161005b91906105ba565b60405180910390f35b61007e60048036038101906100799190610499565b6100e8565b60405161008b91906105fe565b60405180910390f35b6100ae60048036038101906100a99190610470565b610340565b6040516100bb9190610639565b60405180910390f35b60008054906101000a900473ffffffffffffffffffffffffffffffffffffffff1681565b60008060009054906101000a900473ffffffffffffffffffffffffffffffffffffffff1673ffffffffffffffffffffffffffffffffffffffff163373ffffffffffffffffffffffffffffffffffffffff161461014357600080fd5b600083905060008173ffffffffffffffffffffffffffffffffffffffff166370a08231306040518263ffffffff1660e01b815260040161018391906105ba565b60206040518083038186803b15801561019b57600080fd5b505afa1580156101af573d6000803e3d6000fd5b505050506040513d601f19601f820116820180604052508101906101d391906104fe565b905060008111610218576040517f08c379a000000000000000000000000000000000000000000000000000000000815260040161020f90610619565b60405180910390fd5b8173ffffffffffffffffffffffffffffffffffffffff1663095ea7b330836040518363ffffffff1660e01b81526004016102539291906105d5565b602060405180830381600087803b15801561026d57600080fd5b505af1158015610281573d6000803e3d6000fd5b505050506040513d601f19601f820116820180604052508101906102a591906104d5565b508173ffffffffffffffffffffffffffffffffffffffff1663a9059cbb85836040518363ffffffff1660e01b81526004016102e19291906105d5565b602060405180830381600087803b1580156102fb57600080fd5b505af115801561030f573d6000803e3d6000fd5b505050506040513d601f19601f8201168201806040525081019061033391906104d5565b5060019250505092915050565b60008060009054906101000a900473ffffffffffffffffffffffffffffffffffffffff1673ffffffffffffffffffffffffffffffffffffffff163373ffffffffffffffffffffffffffffffffffffffff161461039b57600080fd5b60008290508073ffffffffffffffffffffffffffffffffffffffff166370a08231306040518263ffffffff1660e01b81526004016103d991906105ba565b60206040518083038186803b1580156103f157600080fd5b505afa158015610405573d6000803e3d6000fd5b505050506040513d601f19601f8201168201806040525081019061042991906104fe565b915050919050565b600081359050610440816106ad565b92915050565b600081519050610455816106c4565b92915050565b60008151905061046a816106db565b92915050565b60006020828403121561048257600080fd5b600061049084828501610431565b91505092915050565b600080604083850312156104ac57600080fd5b60006104ba85828601610431565b92505060206104cb85828601610431565b9150509250929050565b6000602082840312156104e757600080fd5b60006104f584828501610446565b91505092915050565b60006020828403121561051057600080fd5b600061051e8482850161045b565b91505092915050565b61053081610665565b82525050565b61053f81610677565b82525050565b6000610552602783610654565b91507f72656365697665722062616c616e6365206d757374206265206772656174657260008301527f207468616e2030000000000000000000000000000000000000000000000000006020830152604082019050919050565b6105b4816106a3565b82525050565b60006020820190506105cf6000830184610527565b92915050565b60006040820190506105ea6000830185610527565b6105f760208301846105ab565b9392505050565b60006020820190506106136000830184610536565b92915050565b6000602082019050818103600083015261063281610545565b9050919050565b600060208201905061064e60008301846105ab565b92915050565b600082825260208201905092915050565b600061067082610683565b9050919050565b60008115159050919050565b600073ffffffffffffffffffffffffffffffffffffffff82169050919050565b6000819050919050565b6106b681610665565b81146106c157600080fd5b50565b6106cd81610677565b81146106d857600080fd5b50565b6106e4816106a3565b81146106ef57600080fd5b5056fea2646970667358221220205fdeed30fdce5857a8bf61cae0dd0968eb97684d5b2cfe240576337602f91564736f6c63430008000033a2646970667358221220d60da39836c142d9b681bd2acc7d1dc03b31bbe7e88d6cc5b55d589ba17d49ed64736f6c63430008000033",
  "immutableReferences": {},
  "source": "// SPDX-License-Identifier: MIT\r\npragma solidity >=0.4.20;\r\n\r\nimport \"./Receiver.sol\";\r\n\r\ncontract Bank {\r\n    event ReceiverCreated(address receiverAddress, string indexed userId);\r\n\r\n    struct User {\r\n        string id;\r\n    }\r\n\r\n    address public owner;\r\n    mapping(address => User) internal receiversMap;\r\n    address[] internal receiversArray;\r\n\r\n    constructor() public {\r\n        owner = msg.sender;\r\n    }\r\n\r\n    modifier onlyOwner() {\r\n        require(msg.sender == owner, \"insufficient permissions\");\r\n        _;\r\n    }\r\n\r\n    function createReceiver(string memory userId) public onlyOwner {\r\n        address receiverAddress = address(new Receiver());\r\n        receiversMap[receiverAddress] = User({id: userId});\r\n        receiversArray.push(receiverAddress);\r\n        emit ReceiverCreated(receiverAddress, userId);\r\n    }\r\n\r\n    function withdrawReceiverTo(\r\n        address tokenAddress,\r\n        address receiverAddress,\r\n        address toAddress\r\n    ) public onlyOwner {\r\n        Receiver receiver = Receiver(receiverAddress);\r\n        receiver.withdrawTokensTo(tokenAddress, toAddress);\r\n    }\r\n\r\n    function getTotalBalance(address tokenAddress)\r\n        public\r\n        view\r\n        onlyOwner\r\n        returns (uint256)\r\n    {\r\n        uint256 balance = 0;\r\n\r\n        for (uint256 i = 0; i < receiversArray.length; i++) {\r\n            Receiver receiver = Receiver(receiversArray[i]);\r\n            balance += receiver.getBalance(tokenAddress);\r\n        }\r\n\r\n        return balance;\r\n    }\r\n\r\n    function getBalanceOfReceiver(address tokenAddress, address receiverAddress)\r\n        public\r\n        onlyOwner\r\n        returns (uint256)\r\n    {\r\n        Receiver receiver = Receiver(receiverAddress);\r\n        return receiver.getBalance(tokenAddress);\r\n    }\r\n}\r\n",
  "sourcePath": "C:\\code\\centralized-eth-erc20-payments\\contracts\\contracts\\Bank.sol",
  "compiler": {
    "name": "solc",
    "version": "0.8.0+commit.c7dfd78e.Emscripten.clang"
  },
  "schemaVersion": "3.4.3",
  "updatedAt": "2021-11-14T18:41:04.080Z",
  "devdoc": {
    "kind": "dev",
    "methods": {},
    "version": 1
  },
  "userdoc": {
    "kind": "user",
    "methods": {},
    "version": 1
  }
}