{
  "contractName": "TestERC20",
  "abi": [
    {
      "inputs": [],
      "stateMutability": "nonpayable",
      "type": "constructor"
    },
    {
      "anonymous": false,
      "inputs": [
        {
          "indexed": true,
          "internalType": "address",
          "name": "owner",
          "type": "address"
        },
        {
          "indexed": true,
          "internalType": "address",
          "name": "spender",
          "type": "address"
        },
        {
          "indexed": false,
          "internalType": "uint256",
          "name": "value",
          "type": "uint256"
        }
      ],
      "name": "Approval",
      "type": "event"
    },
    {
      "anonymous": false,
      "inputs": [
        {
          "indexed": true,
          "internalType": "address",
          "name": "from",
          "type": "address"
        },
        {
          "indexed": true,
          "internalType": "address",
          "name": "to",
          "type": "address"
        },
        {
          "indexed": false,
          "internalType": "uint256",
          "name": "value",
          "type": "uint256"
        }
      ],
      "name": "Transfer",
      "type": "event"
    },
    {
      "inputs": [
        {
          "internalType": "uint256",
          "name": "balance",
          "type": "uint256"
        },
        {
          "internalType": "address",
          "name": "to",
          "type": "address"
        }
      ],
      "name": "addBalanceToAddress",
      "outputs": [],
      "stateMutability": "nonpayable",
      "type": "function"
    },
    {
      "inputs": [
        {
          "internalType": "address",
          "name": "account",
          "type": "address"
        }
      ],
      "name": "balanceOf",
      "outputs": [
        {
          "internalType": "uint256",
          "name": "",
          "type": "uint256"
        }
      ],
      "stateMutability": "view",
      "type": "function"
    },
    {
      "inputs": [
        {
          "internalType": "address",
          "name": "spender",
          "type": "address"
        },
        {
          "internalType": "uint256",
          "name": "amount",
          "type": "uint256"
        }
      ],
      "name": "approve",
      "outputs": [
        {
          "internalType": "bool",
          "name": "",
          "type": "bool"
        }
      ],
      "stateMutability": "nonpayable",
      "type": "function"
    },
    {
      "inputs": [
        {
          "internalType": "address",
          "name": "sender",
          "type": "address"
        },
        {
          "internalType": "address",
          "name": "recipient",
          "type": "address"
        },
        {
          "internalType": "uint256",
          "name": "amount",
          "type": "uint256"
        }
      ],
      "name": "transferFrom",
      "outputs": [
        {
          "internalType": "bool",
          "name": "",
          "type": "bool"
        }
      ],
      "stateMutability": "nonpayable",
      "type": "function"
    },
    {
      "inputs": [],
      "name": "totalSupply",
      "outputs": [
        {
          "internalType": "uint256",
          "name": "",
          "type": "uint256"
        }
      ],
      "stateMutability": "view",
      "type": "function"
    },
    {
      "inputs": [
        {
          "internalType": "address",
          "name": "recipient",
          "type": "address"
        },
        {
          "internalType": "uint256",
          "name": "amount",
          "type": "uint256"
        }
      ],
      "name": "transfer",
      "outputs": [
        {
          "internalType": "bool",
          "name": "",
          "type": "bool"
        }
      ],
      "stateMutability": "nonpayable",
      "type": "function"
    },
    {
      "inputs": [
        {
          "internalType": "address",
          "name": "owner",
          "type": "address"
        },
        {
          "internalType": "address",
          "name": "spender",
          "type": "address"
        }
      ],
      "name": "allowance",
      "outputs": [
        {
          "internalType": "uint256",
          "name": "",
          "type": "uint256"
        }
      ],
      "stateMutability": "view",
      "type": "function"
    }
  ],
  "bytecode": "0x608060405234801561001057600080fd5b506108c7806100206000396000f3fe608060405234801561001057600080fd5b506004361061007d5760003560e01c806370a082311161005b57806370a0823114610100578063a9059cbb14610130578063bdc96fad14610160578063dd62ed3e1461017c5761007d565b8063095ea7b31461008257806318160ddd146100b257806323b872dd146100d0575b600080fd5b61009c600480360381019061009791906105c5565b6101ac565b6040516100a991906106db565b60405180910390f35b6100ba6101b8565b6040516100c79190610736565b60405180910390f35b6100ea60048036038101906100e59190610576565b6101c2565b6040516100f791906106db565b60405180910390f35b61011a60048036038101906101159190610511565b610366565b6040516101279190610736565b60405180910390f35b61014a600480360381019061014591906105c5565b6103ae565b60405161015791906106db565b60405180910390f35b61017a60048036038101906101759190610601565b6103ba565b005b6101966004803603810190610191919061053a565b6104da565b6040516101a39190610736565b60405180910390f35b60006001905092915050565b60006103e8905090565b6000806000808673ffffffffffffffffffffffffffffffffffffffff1673ffffffffffffffffffffffffffffffffffffffff1681526020019081526020016000205411610244576040517f08c379a000000000000000000000000000000000000000000000000000000000815260040161023b906106f6565b60405180910390fd5b816000808673ffffffffffffffffffffffffffffffffffffffff1673ffffffffffffffffffffffffffffffffffffffff1681526020019081526020016000205410156102c5576040517f08c379a00000000000000000000000000000000000000000000000000000000081526004016102bc90610716565b60405180910390fd5b816000808673ffffffffffffffffffffffffffffffffffffffff1673ffffffffffffffffffffffffffffffffffffffff1681526020019081526020016000205461030f91906107b8565b6000808673ffffffffffffffffffffffffffffffffffffffff1673ffffffffffffffffffffffffffffffffffffffff1681526020019081526020016000208190555061035b82846103ba565b600190509392505050565b60008060008373ffffffffffffffffffffffffffffffffffffffff1673ffffffffffffffffffffffffffffffffffffffff168152602001908152602001600020549050919050565b60006001905092915050565b60008060008373ffffffffffffffffffffffffffffffffffffffff1673ffffffffffffffffffffffffffffffffffffffff16815260200190815260200160002054111561049257816000808373ffffffffffffffffffffffffffffffffffffffff1673ffffffffffffffffffffffffffffffffffffffff1681526020019081526020016000205461044b9190610762565b6000808373ffffffffffffffffffffffffffffffffffffffff1673ffffffffffffffffffffffffffffffffffffffff168152602001908152602001600020819055506104d6565b816000808373ffffffffffffffffffffffffffffffffffffffff1673ffffffffffffffffffffffffffffffffffffffff168152602001908152602001600020819055505b5050565b6000612710905092915050565b6000813590506104f681610863565b92915050565b60008135905061050b8161087a565b92915050565b60006020828403121561052357600080fd5b6000610531848285016104e7565b91505092915050565b6000806040838503121561054d57600080fd5b600061055b858286016104e7565b925050602061056c858286016104e7565b9150509250929050565b60008060006060848603121561058b57600080fd5b6000610599868287016104e7565b93505060206105aa868287016104e7565b92505060406105bb868287016104fc565b9150509250925092565b600080604083850312156105d857600080fd5b60006105e6858286016104e7565b92505060206105f7858286016104fc565b9150509250929050565b6000806040838503121561061457600080fd5b6000610622858286016104fc565b9250506020610633858286016104e7565b9150509250929050565b610646816107fe565b82525050565b6000610659601083610751565b91507f73656e646572206e6f7420666f756e64000000000000000000000000000000006000830152602082019050919050565b6000610699601283610751565b91507f6e6f2066756e6473206176616c6961626c6500000000000000000000000000006000830152602082019050919050565b6106d58161082a565b82525050565b60006020820190506106f0600083018461063d565b92915050565b6000602082019050818103600083015261070f8161064c565b9050919050565b6000602082019050818103600083015261072f8161068c565b9050919050565b600060208201905061074b60008301846106cc565b92915050565b600082825260208201905092915050565b600061076d8261082a565b91506107788361082a565b9250827fffffffffffffffffffffffffffffffffffffffffffffffffffffffffffffffff038211156107ad576107ac610834565b5b828201905092915050565b60006107c38261082a565b91506107ce8361082a565b9250828210156107e1576107e0610834565b5b828203905092915050565b60006107f78261080a565b9050919050565b60008115159050919050565b600073ffffffffffffffffffffffffffffffffffffffff82169050919050565b6000819050919050565b7f4e487b7100000000000000000000000000000000000000000000000000000000600052601160045260246000fd5b61086c816107ec565b811461087757600080fd5b50565b6108838161082a565b811461088e57600080fd5b5056fea2646970667358221220603203a2fb1d96308d4353ddb492df56d5fd0130b865c25d836c523baf5ff83764736f6c63430008000033",
  "immutableReferences": {},
  "source": "// SPDX-License-Identifier: MIT\r\npragma solidity >=0.4.20;\r\n\r\ncontract TestERC20 {\r\n    mapping(address => uint256) internal balances;\r\n\r\n    event Transfer(address indexed from, address indexed to, uint256 value);\r\n\r\n    event Approval(\r\n        address indexed owner,\r\n        address indexed spender,\r\n        uint256 value\r\n    );\r\n\r\n    constructor() {}\r\n\r\n    function addBalanceToAddress(uint256 balance, address to) public {\r\n        if (balances[to] > 0) {\r\n            balances[to] = balances[to] + balance;\r\n        } else {\r\n            balances[to] = balance;\r\n        }\r\n    }\r\n\r\n    function balanceOf(address account) external view returns (uint256) {\r\n        return balances[account];\r\n    }\r\n\r\n    function approve(address spender, uint256 amount) external returns (bool) {\r\n        return true;\r\n    }\r\n\r\n    function transferFrom(\r\n        address sender,\r\n        address recipient,\r\n        uint256 amount\r\n    ) external returns (bool) {\r\n        require(balances[sender] > 0, \"sender not found\");\r\n\r\n        require(balances[sender] >= amount, \"no funds avaliable\");\r\n\r\n        balances[sender] = balances[sender] - amount;\r\n        addBalanceToAddress(amount, recipient);\r\n\r\n        return true;\r\n    }\r\n\r\n    function totalSupply() external view returns (uint256) {\r\n        return 1000;\r\n    }\r\n\r\n    function transfer(address recipient, uint256 amount)\r\n        external\r\n        returns (bool)\r\n    {\r\n        return true;\r\n    }\r\n\r\n    function allowance(address owner, address spender)\r\n        external\r\n        view\r\n        returns (uint256)\r\n    {\r\n        return 10000;\r\n    }\r\n}\r\n",
  "sourcePath": "C:\\code\\centralized-eth-erc20-payments\\contracts\\contracts\\TestERC20.sol",
  "compiler": {
    "name": "solc",
    "version": "0.8.0+commit.c7dfd78e.Emscripten.clang"
  },
  "schemaVersion": "3.4.3",
  "updatedAt": "2021-11-14T18:41:04.086Z",
  "devdoc": {
    "kind": "dev",
    "methods": {},
    "version": 1
  },
  "userdoc": {
    "kind": "user",
    "methods": {},
    "version": 1
  }
}