{
  "contractName": "Bank",
  "abi": [
    {
      "inputs": [],
      "stateMutability": "nonpayable",
      "type": "constructor"
    },
    {
      "anonymous": false,
      "inputs": [
        {
          "indexed": false,
          "internalType": "address",
          "name": "receiverAddress",
          "type": "address"
        },
        {
          "indexed": true,
          "internalType": "string",
          "name": "userId",
          "type": "string"
        }
      ],
      "name": "ReceiverCreated",
      "type": "event"
    },
    {
      "inputs": [],
      "name": "owner",
      "outputs": [
        {
          "internalType": "address",
          "name": "",
          "type": "address"
        }
      ],
      "stateMutability": "view",
      "type": "function"
    },
    {
      "inputs": [
        {
          "internalType": "string",
          "name": "userId",
          "type": "string"
        }
      ],
      "name": "createReceiver",
      "outputs": [],
      "stateMutability": "nonpayable",
      "type": "function"
    },
    {
      "inputs": [
        {
          "internalType": "address",
          "name": "tokenAddress",
          "type": "address"
        },
        {
          "internalType": "address",
          "name": "receiverAddress",
          "type": "address"
        },
        {
          "internalType": "address",
          "name": "toAddress",
          "type": "address"
        }
      ],
      "name": "withdrawReceiverTo",
      "outputs": [],
      "stateMutability": "nonpayable",
      "type": "function"
    },
    {
      "inputs": [
        {
          "internalType": "address",
          "name": "tokenAddress",
          "type": "address"
        }
      ],
      "name": "getTotalBalance",
      "outputs": [
        {
          "internalType": "uint256",
          "name": "",
          "type": "uint256"
        }
      ],
      "stateMutability": "view",
      "type": "function"
    },
    {
      "inputs": [
        {
          "internalType": "address",
          "name": "tokenAddress",
          "type": "address"
        },
        {
          "internalType": "address",
          "name": "receiverAddress",
          "type": "address"
        }
      ],
      "name": "getBalanceOfReceiver",
      "outputs": [
        {
          "internalType": "uint256",
          "name": "",
          "type": "uint256"
        }
      ],
      "stateMutability": "view",
      "type": "function"
    },
    {
      "inputs": [
        {
          "internalType": "address",
          "name": "tokenAddress",
          "type": "address"
        },
        {
          "internalType": "address",
          "name": "toAddress",
          "type": "address"
        }
      ],
      "name": "withdrawAllReceiversTo",
      "outputs": [
        {
          "internalType": "bool",
          "name": "",
          "type": "bool"
        }
      ],
      "stateMutability": "nonpayable",
      "type": "function"
    }
  ],
  "bytecode": "0x608060405234801561001057600080fd5b50336000806101000a81548173ffffffffffffffffffffffffffffffffffffffff021916908373ffffffffffffffffffffffffffffffffffffffff1602179055506116ea806100606000396000f3fe608060405234801561001057600080fd5b50600436106100625760003560e01c80630dec4dea14610067578063458192031461008357806383b5b289146100b35780638da5cb5b146100e35780639b3ebf4614610101578063d3d381931461011d575b600080fd5b610081600480360381019061007c9190610abe565b61014d565b005b61009d60048036038101906100989190610a0a565b61032a565b6040516100aa9190610c5c565b60405180910390f35b6100cd60048036038101906100c89190610a0a565b610452565b6040516100da9190610c21565b60405180910390f35b6100eb610580565b6040516100f89190610bdd565b60405180910390f35b61011b60048036038101906101169190610a46565b6105a4565b005b610137600480360381019061013291906109e1565b6106cb565b6040516101449190610c5c565b60405180910390f35b60008054906101000a900473ffffffffffffffffffffffffffffffffffffffff1673ffffffffffffffffffffffffffffffffffffffff163373ffffffffffffffffffffffffffffffffffffffff16146101db576040517f08c379a00000000000000000000000000000000000000000000000000000000081526004016101d290610c3c565b60405180910390fd5b60006040516101e99061088a565b604051809103906000f080158015610205573d6000803e3d6000fd5b509050604051806020016040528083815250600160008373ffffffffffffffffffffffffffffffffffffffff1673ffffffffffffffffffffffffffffffffffffffff1681526020019081526020016000206000820151816000019080519060200190610272929190610897565b509050506002819080600181540180825580915050600190039060005260206000200160009091909190916101000a81548173ffffffffffffffffffffffffffffffffffffffff021916908373ffffffffffffffffffffffffffffffffffffffff160217905550816040516102e79190610bc6565b60405180910390207feaa64bb02628de468ace7c47b9bc7367c7db8ce00f05587440a5f456231799228260405161031e9190610bdd565b60405180910390a25050565b60008060009054906101000a900473ffffffffffffffffffffffffffffffffffffffff1673ffffffffffffffffffffffffffffffffffffffff163373ffffffffffffffffffffffffffffffffffffffff16146103bb576040517f08c379a00000000000000000000000000000000000000000000000000000000081526004016103b290610c3c565b60405180910390fd5b60008290508073ffffffffffffffffffffffffffffffffffffffff1663f8b2cb4f856040518263ffffffff1660e01b81526004016103f99190610bdd565b60206040518083038186803b15801561041157600080fd5b505afa158015610425573d6000803e3d6000fd5b505050506040513d601f19601f820116820180604052508101906104499190610aff565b91505092915050565b60008060009054906101000a900473ffffffffffffffffffffffffffffffffffffffff1673ffffffffffffffffffffffffffffffffffffffff163373ffffffffffffffffffffffffffffffffffffffff16146104e3576040517f08c379a00000000000000000000000000000000000000000000000000000000081526004016104da90610c3c565b60405180910390fd5b60005b600280549050811015610575576105628460028381548110610531577f4e487b7100000000000000000000000000000000000000000000000000000000600052603260045260246000fd5b9060005260206000200160009054906101000a900473ffffffffffffffffffffffffffffffffffffffff16856105a4565b808061056d90610e11565b9150506104e6565b506001905092915050565b60008054906101000a900473ffffffffffffffffffffffffffffffffffffffff1681565b60008054906101000a900473ffffffffffffffffffffffffffffffffffffffff1673ffffffffffffffffffffffffffffffffffffffff163373ffffffffffffffffffffffffffffffffffffffff1614610632576040517f08c379a000000000000000000000000000000000000000000000000000000000815260040161062990610c3c565b60405180910390fd5b60008290508073ffffffffffffffffffffffffffffffffffffffff1663e3f6d88485846040518363ffffffff1660e01b8152600401610672929190610bf8565b602060405180830381600087803b15801561068c57600080fd5b505af11580156106a0573d6000803e3d6000fd5b505050506040513d601f19601f820116820180604052508101906106c49190610a95565b5050505050565b60008060009054906101000a900473ffffffffffffffffffffffffffffffffffffffff1673ffffffffffffffffffffffffffffffffffffffff163373ffffffffffffffffffffffffffffffffffffffff161461075c576040517f08c379a000000000000000000000000000000000000000000000000000000000815260040161075390610c3c565b60405180910390fd5b6000805b600280549050811015610880576000600282815481106107a9577f4e487b7100000000000000000000000000000000000000000000000000000000600052603260045260246000fd5b9060005260206000200160009054906101000a900473ffffffffffffffffffffffffffffffffffffffff1690508073ffffffffffffffffffffffffffffffffffffffff1663f8b2cb4f866040518263ffffffff1660e01b815260040161080f9190610bdd565b60206040518083038186803b15801561082757600080fd5b505afa15801561083b573d6000803e3d6000fd5b505050506040513d601f19601f8201168201806040525081019061085f9190610aff565b8361086a9190610cff565b925050808061087890610e11565b915050610760565b5080915050919050565b61078880610f2d83390190565b8280546108a390610ddf565b90600052602060002090601f0160209004810192826108c5576000855561090c565b82601f106108de57805160ff191683800117855561090c565b8280016001018555821561090c579182015b8281111561090b5782518255916020019190600101906108f0565b5b509050610919919061091d565b5090565b5b8082111561093657600081600090555060010161091e565b5090565b600061094d61094884610ca8565b610c77565b90508281526020810184848401111561096557600080fd5b610970848285610d9d565b509392505050565b60008135905061098781610ee7565b92915050565b60008151905061099c81610efe565b92915050565b600082601f8301126109b357600080fd5b81356109c384826020860161093a565b91505092915050565b6000815190506109db81610f15565b92915050565b6000602082840312156109f357600080fd5b6000610a0184828501610978565b91505092915050565b60008060408385031215610a1d57600080fd5b6000610a2b85828601610978565b9250506020610a3c85828601610978565b9150509250929050565b600080600060608486031215610a5b57600080fd5b6000610a6986828701610978565b9350506020610a7a86828701610978565b9250506040610a8b86828701610978565b9150509250925092565b600060208284031215610aa757600080fd5b6000610ab58482850161098d565b91505092915050565b600060208284031215610ad057600080fd5b600082013567ffffffffffffffff811115610aea57600080fd5b610af6848285016109a2565b91505092915050565b600060208284031215610b1157600080fd5b6000610b1f848285016109cc565b91505092915050565b610b3181610d55565b82525050565b610b4081610d67565b82525050565b6000610b5182610cd8565b610b5b8185610cf4565b9350610b6b818560208601610dac565b80840191505092915050565b6000610b84601883610ce3565b91507f696e73756666696369656e74207065726d697373696f6e7300000000000000006000830152602082019050919050565b610bc081610d93565b82525050565b6000610bd28284610b46565b915081905092915050565b6000602082019050610bf26000830184610b28565b92915050565b6000604082019050610c0d6000830185610b28565b610c1a6020830184610b28565b9392505050565b6000602082019050610c366000830184610b37565b92915050565b60006020820190508181036000830152610c5581610b77565b9050919050565b6000602082019050610c716000830184610bb7565b92915050565b6000604051905081810181811067ffffffffffffffff82111715610c9e57610c9d610eb8565b5b8060405250919050565b600067ffffffffffffffff821115610cc357610cc2610eb8565b5b601f19601f8301169050602081019050919050565b600081519050919050565b600082825260208201905092915050565b600081905092915050565b6000610d0a82610d93565b9150610d1583610d93565b9250827fffffffffffffffffffffffffffffffffffffffffffffffffffffffffffffffff03821115610d4a57610d49610e5a565b5b828201905092915050565b6000610d6082610d73565b9050919050565b60008115159050919050565b600073ffffffffffffffffffffffffffffffffffffffff82169050919050565b6000819050919050565b82818337600083830152505050565b60005b83811015610dca578082015181840152602081019050610daf565b83811115610dd9576000848401525b50505050565b60006002820490506001821680610df757607f821691505b60208210811415610e0b57610e0a610e89565b5b50919050565b6000610e1c82610d93565b91507fffffffffffffffffffffffffffffffffffffffffffffffffffffffffffffffff821415610e4f57610e4e610e5a565b5b600182019050919050565b7f4e487b7100000000000000000000000000000000000000000000000000000000600052601160045260246000fd5b7f4e487b7100000000000000000000000000000000000000000000000000000000600052602260045260246000fd5b7f4e487b7100000000000000000000000000000000000000000000000000000000600052604160045260246000fd5b610ef081610d55565b8114610efb57600080fd5b50565b610f0781610d67565b8114610f1257600080fd5b50565b610f1e81610d93565b8114610f2957600080fd5b5056fe608060405234801561001057600080fd5b50336000806101000a81548173ffffffffffffffffffffffffffffffffffffffff021916908373ffffffffffffffffffffffffffffffffffffffff160217905550610728806100606000396000f3fe608060405234801561001057600080fd5b50600436106100415760003560e01c80638da5cb5b14610046578063e3f6d88414610064578063f8b2cb4f14610094575b600080fd5b61004e6100c4565b60405161005b91906105ba565b60405180910390f35b61007e60048036038101906100799190610499565b6100e8565b60405161008b91906105fe565b60405180910390f35b6100ae60048036038101906100a99190610470565b610340565b6040516100bb9190610639565b60405180910390f35b60008054906101000a900473ffffffffffffffffffffffffffffffffffffffff1681565b60008060009054906101000a900473ffffffffffffffffffffffffffffffffffffffff1673ffffffffffffffffffffffffffffffffffffffff163373ffffffffffffffffffffffffffffffffffffffff161461014357600080fd5b600083905060008173ffffffffffffffffffffffffffffffffffffffff166370a08231306040518263ffffffff1660e01b815260040161018391906105ba565b60206040518083038186803b15801561019b57600080fd5b505afa1580156101af573d6000803e3d6000fd5b505050506040513d601f19601f820116820180604052508101906101d391906104fe565b905060008111610218576040517f08c379a000000000000000000000000000000000000000000000000000000000815260040161020f90610619565b60405180910390fd5b8173ffffffffffffffffffffffffffffffffffffffff1663095ea7b330836040518363ffffffff1660e01b81526004016102539291906105d5565b602060405180830381600087803b15801561026d57600080fd5b505af1158015610281573d6000803e3d6000fd5b505050506040513d601f19601f820116820180604052508101906102a591906104d5565b508173ffffffffffffffffffffffffffffffffffffffff1663a9059cbb85836040518363ffffffff1660e01b81526004016102e19291906105d5565b602060405180830381600087803b1580156102fb57600080fd5b505af115801561030f573d6000803e3d6000fd5b505050506040513d601f19601f8201168201806040525081019061033391906104d5565b5060019250505092915050565b60008060009054906101000a900473ffffffffffffffffffffffffffffffffffffffff1673ffffffffffffffffffffffffffffffffffffffff163373ffffffffffffffffffffffffffffffffffffffff161461039b57600080fd5b60008290508073ffffffffffffffffffffffffffffffffffffffff166370a08231306040518263ffffffff1660e01b81526004016103d991906105ba565b60206040518083038186803b1580156103f157600080fd5b505afa158015610405573d6000803e3d6000fd5b505050506040513d601f19601f8201168201806040525081019061042991906104fe565b915050919050565b600081359050610440816106ad565b92915050565b600081519050610455816106c4565b92915050565b60008151905061046a816106db565b92915050565b60006020828403121561048257600080fd5b600061049084828501610431565b91505092915050565b600080604083850312156104ac57600080fd5b60006104ba85828601610431565b92505060206104cb85828601610431565b9150509250929050565b6000602082840312156104e757600080fd5b60006104f584828501610446565b91505092915050565b60006020828403121561051057600080fd5b600061051e8482850161045b565b91505092915050565b61053081610665565b82525050565b61053f81610677565b82525050565b6000610552602783610654565b91507f72656365697665722062616c616e6365206d757374206265206772656174657260008301527f207468616e2030000000000000000000000000000000000000000000000000006020830152604082019050919050565b6105b4816106a3565b82525050565b60006020820190506105cf6000830184610527565b92915050565b60006040820190506105ea6000830185610527565b6105f760208301846105ab565b9392505050565b60006020820190506106136000830184610536565b92915050565b6000602082019050818103600083015261063281610545565b9050919050565b600060208201905061064e60008301846105ab565b92915050565b600082825260208201905092915050565b600061067082610683565b9050919050565b60008115159050919050565b600073ffffffffffffffffffffffffffffffffffffffff82169050919050565b6000819050919050565b6106b681610665565b81146106c157600080fd5b50565b6106cd81610677565b81146106d857600080fd5b50565b6106e4816106a3565b81146106ef57600080fd5b5056fea26469706673582212202f21a34940f7f04296d2feb7d5f0c72a7633d7d8632df7cce37df694a80d00ba64736f6c63430008000033a26469706673582212202885edfcfa464ac0f5c9e950aa4326469ed469688f883feb905d317437a0ac8464736f6c63430008000033",
  "immutableReferences": {},
  "source": "// SPDX-License-Identifier: MIT\r\npragma solidity >=0.4.20;\r\n\r\nimport \"./Receiver.sol\";\r\n\r\ncontract Bank {\r\n    event ReceiverCreated(address receiverAddress, string indexed userId);\r\n\r\n    struct User {\r\n        string id;\r\n    }\r\n\r\n    address public owner;\r\n    mapping(address => User) internal receiversMap;\r\n    address[] internal receiversArray;\r\n\r\n    constructor() public {\r\n        owner = msg.sender;\r\n    }\r\n\r\n    modifier onlyOwner() {\r\n        require(msg.sender == owner, \"insufficient permissions\");\r\n        _;\r\n    }\r\n\r\n    function createReceiver(string memory userId) public onlyOwner {\r\n        address receiverAddress = address(new Receiver());\r\n        receiversMap[receiverAddress] = User({id: userId});\r\n        receiversArray.push(receiverAddress);\r\n        emit ReceiverCreated(receiverAddress, userId);\r\n    }\r\n\r\n    function withdrawReceiverTo(\r\n        address tokenAddress,\r\n        address receiverAddress,\r\n        address toAddress\r\n    ) public onlyOwner {\r\n        Receiver receiver = Receiver(receiverAddress);\r\n        receiver.withdrawTokensTo(tokenAddress, toAddress);\r\n    }\r\n\r\n    function getTotalBalance(address tokenAddress)\r\n        public\r\n        view\r\n        onlyOwner\r\n        returns (uint256)\r\n    {\r\n        uint256 balance = 0;\r\n\r\n        for (uint256 i = 0; i < receiversArray.length; i++) {\r\n            Receiver receiver = Receiver(receiversArray[i]);\r\n            balance += receiver.getBalance(tokenAddress);\r\n        }\r\n\r\n        return balance;\r\n    }\r\n\r\n    function getBalanceOfReceiver(address tokenAddress, address receiverAddress)\r\n        public\r\n        view\r\n        onlyOwner\r\n        returns (uint256)\r\n    {\r\n        Receiver receiver = Receiver(receiverAddress);\r\n        return receiver.getBalance(tokenAddress);\r\n    }\r\n\r\n    function withdrawAllReceiversTo(address tokenAddress, address toAddress) \r\n        public \r\n        onlyOwner \r\n        returns (bool) \r\n    {\r\n        for (uint256 i = 0; i < receiversArray.length; i++) {\r\n            withdrawReceiverTo(tokenAddress, receiversArray[i], toAddress);\r\n        }\r\n\r\n        return true;\r\n    }\r\n}\r\n",
  "sourcePath": "C:\\code\\centralized-eth-erc20-payments\\src\\contracts\\contracts\\Bank.sol",
  "compiler": {
    "name": "solc",
    "version": "0.8.0+commit.c7dfd78e.Emscripten.clang"
  },
  "schemaVersion": "3.4.3",
  "updatedAt": "2021-11-22T12:47:29.817Z",
  "devdoc": {
    "kind": "dev",
    "methods": {},
    "version": 1
  },
  "userdoc": {
    "kind": "user",
    "methods": {},
    "version": 1
  }
}