{
  "contractName": "Receiver",
  "abi": [
    {
      "inputs": [],
      "stateMutability": "nonpayable",
      "type": "constructor"
    },
    {
      "inputs": [],
      "name": "owner",
      "outputs": [
        {
          "internalType": "address",
          "name": "",
          "type": "address"
        }
      ],
      "stateMutability": "view",
      "type": "function"
    },
    {
      "inputs": [
        {
          "internalType": "address",
          "name": "tokenAddress",
          "type": "address"
        }
      ],
      "name": "getBalance",
      "outputs": [
        {
          "internalType": "uint256",
          "name": "",
          "type": "uint256"
        }
      ],
      "stateMutability": "view",
      "type": "function"
    },
    {
      "inputs": [
        {
          "internalType": "address",
          "name": "tokenAddress",
          "type": "address"
        },
        {
          "internalType": "address",
          "name": "toAddress",
          "type": "address"
        }
      ],
      "name": "withdrawTokensTo",
      "outputs": [
        {
          "internalType": "bool",
          "name": "",
          "type": "bool"
        }
      ],
      "stateMutability": "nonpayable",
      "type": "function"
    }
  ],
  "bytecode": "0x608060405234801561001057600080fd5b50336000806101000a81548173ffffffffffffffffffffffffffffffffffffffff021916908373ffffffffffffffffffffffffffffffffffffffff160217905550610728806100606000396000f3fe608060405234801561001057600080fd5b50600436106100415760003560e01c80638da5cb5b14610046578063e3f6d88414610064578063f8b2cb4f14610094575b600080fd5b61004e6100c4565b60405161005b91906105ba565b60405180910390f35b61007e60048036038101906100799190610499565b6100e8565b60405161008b91906105fe565b60405180910390f35b6100ae60048036038101906100a99190610470565b610340565b6040516100bb9190610639565b60405180910390f35b60008054906101000a900473ffffffffffffffffffffffffffffffffffffffff1681565b60008060009054906101000a900473ffffffffffffffffffffffffffffffffffffffff1673ffffffffffffffffffffffffffffffffffffffff163373ffffffffffffffffffffffffffffffffffffffff161461014357600080fd5b600083905060008173ffffffffffffffffffffffffffffffffffffffff166370a08231306040518263ffffffff1660e01b815260040161018391906105ba565b60206040518083038186803b15801561019b57600080fd5b505afa1580156101af573d6000803e3d6000fd5b505050506040513d601f19601f820116820180604052508101906101d391906104fe565b905060008111610218576040517f08c379a000000000000000000000000000000000000000000000000000000000815260040161020f90610619565b60405180910390fd5b8173ffffffffffffffffffffffffffffffffffffffff1663095ea7b330836040518363ffffffff1660e01b81526004016102539291906105d5565b602060405180830381600087803b15801561026d57600080fd5b505af1158015610281573d6000803e3d6000fd5b505050506040513d601f19601f820116820180604052508101906102a591906104d5565b508173ffffffffffffffffffffffffffffffffffffffff1663a9059cbb85836040518363ffffffff1660e01b81526004016102e19291906105d5565b602060405180830381600087803b1580156102fb57600080fd5b505af115801561030f573d6000803e3d6000fd5b505050506040513d601f19601f8201168201806040525081019061033391906104d5565b5060019250505092915050565b60008060009054906101000a900473ffffffffffffffffffffffffffffffffffffffff1673ffffffffffffffffffffffffffffffffffffffff163373ffffffffffffffffffffffffffffffffffffffff161461039b57600080fd5b60008290508073ffffffffffffffffffffffffffffffffffffffff166370a08231306040518263ffffffff1660e01b81526004016103d991906105ba565b60206040518083038186803b1580156103f157600080fd5b505afa158015610405573d6000803e3d6000fd5b505050506040513d601f19601f8201168201806040525081019061042991906104fe565b915050919050565b600081359050610440816106ad565b92915050565b600081519050610455816106c4565b92915050565b60008151905061046a816106db565b92915050565b60006020828403121561048257600080fd5b600061049084828501610431565b91505092915050565b600080604083850312156104ac57600080fd5b60006104ba85828601610431565b92505060206104cb85828601610431565b9150509250929050565b6000602082840312156104e757600080fd5b60006104f584828501610446565b91505092915050565b60006020828403121561051057600080fd5b600061051e8482850161045b565b91505092915050565b61053081610665565b82525050565b61053f81610677565b82525050565b6000610552602783610654565b91507f72656365697665722062616c616e6365206d757374206265206772656174657260008301527f207468616e2030000000000000000000000000000000000000000000000000006020830152604082019050919050565b6105b4816106a3565b82525050565b60006020820190506105cf6000830184610527565b92915050565b60006040820190506105ea6000830185610527565b6105f760208301846105ab565b9392505050565b60006020820190506106136000830184610536565b92915050565b6000602082019050818103600083015261063281610545565b9050919050565b600060208201905061064e60008301846105ab565b92915050565b600082825260208201905092915050565b600061067082610683565b9050919050565b60008115159050919050565b600073ffffffffffffffffffffffffffffffffffffffff82169050919050565b6000819050919050565b6106b681610665565b81146106c157600080fd5b50565b6106cd81610677565b81146106d857600080fd5b50565b6106e4816106a3565b81146106ef57600080fd5b5056fea26469706673582212202f21a34940f7f04296d2feb7d5f0c72a7633d7d8632df7cce37df694a80d00ba64736f6c63430008000033",
  "immutableReferences": {},
  "source": "// SPDX-License-Identifier: MIT\r\npragma solidity >=0.4.20;\r\n\r\nimport \"@openzeppelin/contracts/token/ERC20/IERC20.sol\";\r\n\r\ncontract Receiver {\r\n    address public owner;\r\n\r\n    constructor() public {\r\n        owner = msg.sender;\r\n    }\r\n\r\n    modifier onlyOwner() {\r\n        require(msg.sender == owner);\r\n        _;\r\n    }\r\n\r\n    function getBalance(address tokenAddress)\r\n        public\r\n        view\r\n        onlyOwner\r\n        returns (uint256)\r\n    {\r\n        IERC20 token = IERC20(tokenAddress);\r\n        return token.balanceOf(address(this));\r\n    }\r\n\r\n    function withdrawTokensTo(address tokenAddress, address toAddress)\r\n        public\r\n        onlyOwner\r\n        returns (bool)\r\n    {\r\n        IERC20 token = IERC20(tokenAddress);\r\n        uint256 balance = token.balanceOf(address(this));\r\n        require(balance > 0, \"receiver balance must be greater than 0\");\r\n\r\n        token.approve(address(this), balance);\r\n        token.transfer(toAddress, balance);\r\n\r\n        return true;\r\n    }\r\n}\r\n",
  "sourcePath": "C:\\code\\centralized-eth-erc20-payments\\src\\contracts\\contracts\\Receiver.sol",
  "compiler": {
    "name": "solc",
    "version": "0.8.0+commit.c7dfd78e.Emscripten.clang"
  },
  "schemaVersion": "3.4.3",
  "updatedAt": "2021-11-22T12:47:29.824Z",
  "devdoc": {
    "kind": "dev",
    "methods": {},
    "version": 1
  },
  "userdoc": {
    "kind": "user",
    "methods": {},
    "version": 1
  }
}