{
  "contractName": "TestERC20",
  "abi": [
    {
      "inputs": [],
      "stateMutability": "nonpayable",
      "type": "constructor"
    },
    {
      "anonymous": false,
      "inputs": [
        {
          "indexed": true,
          "internalType": "address",
          "name": "owner",
          "type": "address"
        },
        {
          "indexed": true,
          "internalType": "address",
          "name": "spender",
          "type": "address"
        },
        {
          "indexed": false,
          "internalType": "uint256",
          "name": "value",
          "type": "uint256"
        }
      ],
      "name": "Approval",
      "type": "event"
    },
    {
      "anonymous": false,
      "inputs": [
        {
          "indexed": true,
          "internalType": "address",
          "name": "from",
          "type": "address"
        },
        {
          "indexed": true,
          "internalType": "address",
          "name": "to",
          "type": "address"
        },
        {
          "indexed": false,
          "internalType": "uint256",
          "name": "value",
          "type": "uint256"
        }
      ],
      "name": "Transfer",
      "type": "event"
    },
    {
      "inputs": [
        {
          "internalType": "uint256",
          "name": "balance",
          "type": "uint256"
        },
        {
          "internalType": "address",
          "name": "to",
          "type": "address"
        }
      ],
      "name": "addBalanceToAddress",
      "outputs": [],
      "stateMutability": "nonpayable",
      "type": "function"
    },
    {
      "inputs": [
        {
          "internalType": "address",
          "name": "account",
          "type": "address"
        }
      ],
      "name": "balanceOf",
      "outputs": [
        {
          "internalType": "uint256",
          "name": "",
          "type": "uint256"
        }
      ],
      "stateMutability": "view",
      "type": "function"
    },
    {
      "inputs": [
        {
          "internalType": "address",
          "name": "spender",
          "type": "address"
        },
        {
          "internalType": "uint256",
          "name": "amount",
          "type": "uint256"
        }
      ],
      "name": "approve",
      "outputs": [
        {
          "internalType": "bool",
          "name": "",
          "type": "bool"
        }
      ],
      "stateMutability": "nonpayable",
      "type": "function"
    },
    {
      "inputs": [
        {
          "internalType": "address",
          "name": "sender",
          "type": "address"
        },
        {
          "internalType": "address",
          "name": "recipient",
          "type": "address"
        },
        {
          "internalType": "uint256",
          "name": "amount",
          "type": "uint256"
        }
      ],
      "name": "transferFrom",
      "outputs": [
        {
          "internalType": "bool",
          "name": "",
          "type": "bool"
        }
      ],
      "stateMutability": "nonpayable",
      "type": "function"
    },
    {
      "inputs": [],
      "name": "totalSupply",
      "outputs": [
        {
          "internalType": "uint256",
          "name": "",
          "type": "uint256"
        }
      ],
      "stateMutability": "view",
      "type": "function"
    },
    {
      "inputs": [
        {
          "internalType": "address",
          "name": "recipient",
          "type": "address"
        },
        {
          "internalType": "uint256",
          "name": "amount",
          "type": "uint256"
        }
      ],
      "name": "transfer",
      "outputs": [
        {
          "internalType": "bool",
          "name": "",
          "type": "bool"
        }
      ],
      "stateMutability": "nonpayable",
      "type": "function"
    },
    {
      "inputs": [
        {
          "internalType": "address",
          "name": "owner",
          "type": "address"
        },
        {
          "internalType": "address",
          "name": "spender",
          "type": "address"
        }
      ],
      "name": "allowance",
      "outputs": [
        {
          "internalType": "uint256",
          "name": "",
          "type": "uint256"
        }
      ],
      "stateMutability": "view",
      "type": "function"
    }
  ],
  "bytecode": "0x608060405234801561001057600080fd5b50610851806100206000396000f3fe608060405234801561001057600080fd5b506004361061007d5760003560e01c806370a082311161005b57806370a0823114610100578063a9059cbb14610130578063bdc96fad14610160578063dd62ed3e1461017c5761007d565b8063095ea7b31461008257806318160ddd146100b257806323b872dd146100d0575b600080fd5b61009c600480360381019061009791906105af565b6101ac565b6040516100a99190610685565b60405180910390f35b6100ba6101b8565b6040516100c791906106c0565b60405180910390f35b6100ea60048036038101906100e59190610560565b6101c2565b6040516100f79190610685565b60405180910390f35b61011a600480360381019061011591906104fb565b6101cf565b60405161012791906106c0565b60405180910390f35b61014a600480360381019061014591906105af565b610217565b6040516101579190610685565b60405180910390f35b61017a600480360381019061017591906105eb565b6103a4565b005b61019660048036038101906101919190610524565b6104c4565b6040516101a391906106c0565b60405180910390f35b60006001905092915050565b60006103e8905090565b6000600190509392505050565b60008060008373ffffffffffffffffffffffffffffffffffffffff1673ffffffffffffffffffffffffffffffffffffffff168152602001908152602001600020549050919050565b60008033905060008060008373ffffffffffffffffffffffffffffffffffffffff1673ffffffffffffffffffffffffffffffffffffffff168152602001908152602001600020541161029e576040517f08c379a0000000000000000000000000000000000000000000000000000000008152600401610295906106a0565b60405180910390fd5b826000808373ffffffffffffffffffffffffffffffffffffffff1673ffffffffffffffffffffffffffffffffffffffff168152602001908152602001600020546102e89190610742565b6000808373ffffffffffffffffffffffffffffffffffffffff1673ffffffffffffffffffffffffffffffffffffffff1681526020019081526020016000208190555061033483856103a4565b8373ffffffffffffffffffffffffffffffffffffffff168173ffffffffffffffffffffffffffffffffffffffff167fddf252ad1be2c89b69c2b068fc378daa952ba7f163c4a11628f55a4df523b3ef8560405161039191906106c0565b60405180910390a3600191505092915050565b60008060008373ffffffffffffffffffffffffffffffffffffffff1673ffffffffffffffffffffffffffffffffffffffff16815260200190815260200160002054111561047c57816000808373ffffffffffffffffffffffffffffffffffffffff1673ffffffffffffffffffffffffffffffffffffffff1681526020019081526020016000205461043591906106ec565b6000808373ffffffffffffffffffffffffffffffffffffffff1673ffffffffffffffffffffffffffffffffffffffff168152602001908152602001600020819055506104c0565b816000808373ffffffffffffffffffffffffffffffffffffffff1673ffffffffffffffffffffffffffffffffffffffff168152602001908152602001600020819055505b5050565b6000612710905092915050565b6000813590506104e0816107ed565b92915050565b6000813590506104f581610804565b92915050565b60006020828403121561050d57600080fd5b600061051b848285016104d1565b91505092915050565b6000806040838503121561053757600080fd5b6000610545858286016104d1565b9250506020610556858286016104d1565b9150509250929050565b60008060006060848603121561057557600080fd5b6000610583868287016104d1565b9350506020610594868287016104d1565b92505060406105a5868287016104e6565b9150509250925092565b600080604083850312156105c257600080fd5b60006105d0858286016104d1565b92505060206105e1858286016104e6565b9150509250929050565b600080604083850312156105fe57600080fd5b600061060c858286016104e6565b925050602061061d858286016104d1565b9150509250929050565b61063081610788565b82525050565b6000610643600a836106db565b91507f6e6f2062616c616e6365000000000000000000000000000000000000000000006000830152602082019050919050565b61067f816107b4565b82525050565b600060208201905061069a6000830184610627565b92915050565b600060208201905081810360008301526106b981610636565b9050919050565b60006020820190506106d56000830184610676565b92915050565b600082825260208201905092915050565b60006106f7826107b4565b9150610702836107b4565b9250827fffffffffffffffffffffffffffffffffffffffffffffffffffffffffffffffff03821115610737576107366107be565b5b828201905092915050565b600061074d826107b4565b9150610758836107b4565b92508282101561076b5761076a6107be565b5b828203905092915050565b600061078182610794565b9050919050565b60008115159050919050565b600073ffffffffffffffffffffffffffffffffffffffff82169050919050565b6000819050919050565b7f4e487b7100000000000000000000000000000000000000000000000000000000600052601160045260246000fd5b6107f681610776565b811461080157600080fd5b50565b61080d816107b4565b811461081857600080fd5b5056fea264697066735822122002c20226aae01a09671061c5ae95ae21aed8696cbe998db305b05994661041de64736f6c63430008000033",
  "immutableReferences": {},
  "source": "// SPDX-License-Identifier: MIT\r\npragma solidity >=0.4.20;\r\n\r\ncontract TestERC20 {\r\n    mapping(address => uint256) internal balances;\r\n\r\n    event Transfer(address indexed from, address indexed to, uint256 value);\r\n\r\n    // Not used in testing\r\n    event Approval(\r\n        address indexed owner,\r\n        address indexed spender,\r\n        uint256 value\r\n    );\r\n\r\n    constructor() { }\r\n\r\n    function addBalanceToAddress(uint256 balance, address to) public {\r\n        if (balances[to] > 0) {\r\n            balances[to] = balances[to] + balance;\r\n        } else {\r\n            balances[to] = balance;\r\n        }\r\n    }\r\n\r\n    function balanceOf(address account) external view returns (uint256) {\r\n        return balances[account];\r\n    }\r\n\r\n    // Not used in testing\r\n    function approve(address spender, uint256 amount) external returns (bool) {\r\n        return true;\r\n    }\r\n\r\n    function transferFrom(\r\n        address sender,\r\n        address recipient,\r\n        uint256 amount\r\n    ) external returns (bool) {\r\n        return true;\r\n    }\r\n\r\n    // Not used in testing\r\n    function totalSupply() external view returns (uint256) {\r\n        return 1000;\r\n    }\r\n\r\n    function transfer(address recipient, uint256 amount)\r\n        external\r\n        returns (bool)\r\n    {\r\n        address from = msg.sender;\r\n        require(balances[from] > 0, \"no balance\");\r\n\r\n        balances[from] = balances[from] - amount;\r\n\r\n        addBalanceToAddress(amount, recipient);\r\n\r\n        emit Transfer(from, recipient, amount);\r\n\r\n        return true;\r\n    }\r\n\r\n    // Not used in testing\r\n    function allowance(address owner, address spender)\r\n        external\r\n        view\r\n        returns (uint256)\r\n    {\r\n        return 10000;\r\n    }\r\n}\r\n",
  "sourcePath": "C:\\code\\centralized-eth-erc20-payments\\src\\contracts\\contracts\\TestERC20.sol",
  "compiler": {
    "name": "solc",
    "version": "0.8.0+commit.c7dfd78e.Emscripten.clang"
  },
  "schemaVersion": "3.4.3",
  "updatedAt": "2021-11-22T12:47:29.828Z",
  "devdoc": {
    "kind": "dev",
    "methods": {},
    "version": 1
  },
  "userdoc": {
    "kind": "user",
    "methods": {},
    "version": 1
  }
}